{
  "contractName": "AGFirstContract",
  "abi": [
    {
      "inputs": [],
      "name": "hello",
      "outputs": [
        {
          "internalType": "string",
          "name": "",
          "type": "string"
        }
      ],
      "stateMutability": "view",
      "type": "function",
      "constant": true
    },
    {
      "inputs": [],
      "name": "AGRegards",
      "outputs": [
        {
          "internalType": "string",
          "name": "",
          "type": "string"
        }
      ],
      "stateMutability": "view",
      "type": "function",
      "constant": true
    }
  ],
  "bytecode": "0x60806040526040518060600160405280602681526020016104416026913960009080519060200190610032929190610045565b5034801561003f57600080fd5b50610149565b82805461005190610117565b90600052602060002090601f01602090048101928261007357600085556100ba565b82601f1061008c57805160ff19168380011785556100ba565b828001600101855582156100ba579182015b828111156100b957825182559160200191906001019061009e565b5b5090506100c791906100cb565b5090565b5b808211156100e45760008160009055506001016100cc565b5090565b7f4e487b7100000000000000000000000000000000000000000000000000000000600052602260045260246000fd5b6000600282049050600182168061012f57607f821691505b60208210811415610143576101426100e8565b5b50919050565b6102e9806101586000396000f3fe608060405234801561001057600080fd5b50600436106100365760003560e01c806319ff1d211461003b578063228085a014610059575b600080fd5b610043610077565b6040516100509190610230565b60405180910390f35b610061610105565b60405161006e9190610230565b60405180910390f35b6000805461008490610281565b80601f01602080910402602001604051908101604052809291908181526020018280546100b090610281565b80156100fd5780601f106100d2576101008083540402835291602001916100fd565b820191906000526020600020905b8154815290600101906020018083116100e057829003601f168201915b505050505081565b60606000805461011490610281565b80601f016020809104026020016040519081016040528092919081815260200182805461014090610281565b801561018d5780601f106101625761010080835404028352916020019161018d565b820191906000526020600020905b81548152906001019060200180831161017057829003601f168201915b5050505050905090565b600081519050919050565b600082825260208201905092915050565b60005b838110156101d15780820151818401526020810190506101b6565b838111156101e0576000848401525b50505050565b6000601f19601f8301169050919050565b600061020282610197565b61020c81856101a2565b935061021c8185602086016101b3565b610225816101e6565b840191505092915050565b6000602082019050818103600083015261024a81846101f7565b905092915050565b7f4e487b7100000000000000000000000000000000000000000000000000000000600052602260045260246000fd5b6000600282049050600182168061029957607f821691505b602082108114156102ad576102ac610252565b5b5091905056fea2646970667358221220e5ee1edf9729a9fe8141cb402afed7007a6a3d622cefff8264f5a7f8ebb4e0b464736f6c634300080b003348656c6c6f2066726f6d2041472e204675636b696e6720666972737420636f6e74726163742e",
  "immutableReferences": {},
  "source": "// SPDX-License-Identifier: MIT\npragma solidity >=0.4.22 <0.9.0;\n\ncontract AGFirstContract {\n    string public hello = \"Hello from AG. Fucking first contract.\";\n\n    function AGRegards() public view returns (string memory) {\n        return hello;\n    }\n}\n",
  "sourcePath": "C:\\Users\\Asus\\Documents\\GitHub\\Dapp-Web\\contracts\\AGFirstContract.sol",
  "compiler": {
    "name": "solc",
    "version": "0.8.11+commit.d7f03943.Emscripten.clang"
  },
  "schemaVersion": "3.4.3",
  "updatedAt": "2022-01-27T08:26:59.649Z",
  "networkType": "ethereum",
  "devdoc": {
    "kind": "dev",
    "methods": {},
    "version": 1
  },
  "userdoc": {
    "kind": "user",
    "methods": {},
    "version": 1
  }
}